{
	"Challenge Assignments/Solidity-Smart-Contract/joint_savings.sol": {
		"JointSavings": {
			"abi": [
				{
					"payable": true,
					"stateMutability": "payable",
					"type": "fallback"
				},
				{
					"constant": true,
					"inputs": [],
					"name": "contractBalance",
					"outputs": [
						{
							"internalType": "uint256",
							"name": "",
							"type": "uint256"
						}
					],
					"payable": false,
					"stateMutability": "view",
					"type": "function"
				},
				{
					"constant": false,
					"inputs": [],
					"name": "deposit",
					"outputs": [],
					"payable": true,
					"stateMutability": "payable",
					"type": "function"
				},
				{
					"constant": true,
					"inputs": [],
					"name": "lastToWithdraw",
					"outputs": [
						{
							"internalType": "address",
							"name": "",
							"type": "address"
						}
					],
					"payable": false,
					"stateMutability": "view",
					"type": "function"
				},
				{
					"constant": true,
					"inputs": [],
					"name": "lastWithdrawAmount",
					"outputs": [
						{
							"internalType": "uint256",
							"name": "",
							"type": "uint256"
						}
					],
					"payable": false,
					"stateMutability": "view",
					"type": "function"
				},
				{
					"constant": false,
					"inputs": [
						{
							"internalType": "address payable",
							"name": "account1",
							"type": "address"
						},
						{
							"internalType": "address payable",
							"name": "account2",
							"type": "address"
						}
					],
					"name": "setAccounts",
					"outputs": [],
					"payable": false,
					"stateMutability": "nonpayable",
					"type": "function"
				},
				{
					"constant": false,
					"inputs": [
						{
							"internalType": "uint256",
							"name": "amount",
							"type": "uint256"
						},
						{
							"internalType": "address payable",
							"name": "recipient",
							"type": "address"
						}
					],
					"name": "withdraw",
					"outputs": [],
					"payable": false,
					"stateMutability": "nonpayable",
					"type": "function"
				}
			],
			"devdoc": {
				"methods": {}
			},
			"evm": {
				"assembly": "    /* \"Challenge Assignments/Solidity-Smart-Contract/joint_savings.sol\":861:3949  contract JointSavings {... */\n  mstore(0x40, 0x80)\n  callvalue\n    /* \"--CODEGEN--\":8:17   */\n  dup1\n    /* \"--CODEGEN--\":5:7   */\n  iszero\n  tag_1\n  jumpi\n    /* \"--CODEGEN--\":30:31   */\n  0x00\n    /* \"--CODEGEN--\":27:28   */\n  dup1\n    /* \"--CODEGEN--\":20:32   */\n  revert\n    /* \"--CODEGEN--\":5:7   */\ntag_1:\n    /* \"Challenge Assignments/Solidity-Smart-Contract/joint_savings.sol\":861:3949  contract JointSavings {... */\n  pop\n  dataSize(sub_0)\n  dup1\n  dataOffset(sub_0)\n  0x00\n  codecopy\n  0x00\n  return\nstop\n\nsub_0: assembly {\n        /* \"Challenge Assignments/Solidity-Smart-Contract/joint_savings.sol\":861:3949  contract JointSavings {... */\n      mstore(0x40, 0x80)\n      jumpi(tag_1, lt(calldatasize, 0x04))\n      shr(0xe0, calldataload(0x00))\n      dup1\n      0xf714ce\n      eq\n      tag_2\n      jumpi\n      dup1\n      0x43e02605\n      eq\n      tag_3\n      jumpi\n      dup1\n      0x8b7afe2e\n      eq\n      tag_4\n      jumpi\n      dup1\n      0xb831461e\n      eq\n      tag_5\n      jumpi\n      dup1\n      0xd0e30db0\n      eq\n      tag_6\n      jumpi\n      dup1\n      0xe15e1c95\n      eq\n      tag_7\n      jumpi\n    tag_1:\n      stop\n        /* \"Challenge Assignments/Solidity-Smart-Contract/joint_savings.sol\":1565:3071  function withdraw(uint amount, address payable recipient) public {... */\n    tag_2:\n      callvalue\n        /* \"--CODEGEN--\":8:17   */\n      dup1\n        /* \"--CODEGEN--\":5:7   */\n      iszero\n      tag_10\n      jumpi\n        /* \"--CODEGEN--\":30:31   */\n      0x00\n        /* \"--CODEGEN--\":27:28   */\n      dup1\n        /* \"--CODEGEN--\":20:32   */\n      revert\n        /* \"--CODEGEN--\":5:7   */\n    tag_10:\n        /* \"Challenge Assignments/Solidity-Smart-Contract/joint_savings.sol\":1565:3071  function withdraw(uint amount, address payable recipient) public {... */\n      pop\n      tag_11\n      0x04\n      dup1\n      calldatasize\n      sub\n        /* \"--CODEGEN--\":13:15   */\n      0x40\n        /* \"--CODEGEN--\":8:11   */\n      dup2\n        /* \"--CODEGEN--\":5:16   */\n      lt\n        /* \"--CODEGEN--\":2:4   */\n      iszero\n      tag_12\n      jumpi\n        /* \"--CODEGEN--\":29:30   */\n      0x00\n        /* \"--CODEGEN--\":26:27   */\n      dup1\n        /* \"--CODEGEN--\":19:31   */\n      revert\n        /* \"--CODEGEN--\":2:4   */\n    tag_12:\n        /* \"Challenge Assignments/Solidity-Smart-Contract/joint_savings.sol\":1565:3071  function withdraw(uint amount, address payable recipient) public {... */\n      dup2\n      add\n      swap1\n      dup1\n      dup1\n      calldataload\n      swap1\n      0x20\n      add\n      swap1\n      swap3\n      swap2\n      swap1\n      dup1\n      calldataload\n      0xffffffffffffffffffffffffffffffffffffffff\n      and\n      swap1\n      0x20\n      add\n      swap1\n      swap3\n      swap2\n      swap1\n      pop\n      pop\n      pop\n      tag_13\n      jump\t// in\n    tag_11:\n      stop\n        /* \"Challenge Assignments/Solidity-Smart-Contract/joint_savings.sol\":3522:3769  function setAccounts(address payable account1, address payable account2) public{... */\n    tag_3:\n      callvalue\n        /* \"--CODEGEN--\":8:17   */\n      dup1\n        /* \"--CODEGEN--\":5:7   */\n      iszero\n      tag_14\n      jumpi\n        /* \"--CODEGEN--\":30:31   */\n      0x00\n        /* \"--CODEGEN--\":27:28   */\n      dup1\n        /* \"--CODEGEN--\":20:32   */\n      revert\n        /* \"--CODEGEN--\":5:7   */\n    tag_14:\n        /* \"Challenge Assignments/Solidity-Smart-Contract/joint_savings.sol\":3522:3769  function setAccounts(address payable account1, address payable account2) public{... */\n      pop\n      tag_15\n      0x04\n      dup1\n      calldatasize\n      sub\n        /* \"--CODEGEN--\":13:15   */\n      0x40\n        /* \"--CODEGEN--\":8:11   */\n      dup2\n        /* \"--CODEGEN--\":5:16   */\n      lt\n        /* \"--CODEGEN--\":2:4   */\n      iszero\n      tag_16\n      jumpi\n        /* \"--CODEGEN--\":29:30   */\n      0x00\n        /* \"--CODEGEN--\":26:27   */\n      dup1\n        /* \"--CODEGEN--\":19:31   */\n      revert\n        /* \"--CODEGEN--\":2:4   */\n    tag_16:\n        /* \"Challenge Assignments/Solidity-Smart-Contract/joint_savings.sol\":3522:3769  function setAccounts(address payable account1, address payable account2) public{... */\n      dup2\n      add\n      swap1\n      dup1\n      dup1\n      calldataload\n      0xffffffffffffffffffffffffffffffffffffffff\n      and\n      swap1\n      0x20\n      add\n      swap1\n      swap3\n      swap2\n      swap1\n      dup1\n      calldataload\n      0xffffffffffffffffffffffffffffffffffffffff\n      and\n      swap1\n      0x20\n      add\n      swap1\n      swap3\n      swap2\n      swap1\n      pop\n      pop\n      pop\n      tag_17\n      jump\t// in\n    tag_15:\n      stop\n        /* \"Challenge Assignments/Solidity-Smart-Contract/joint_savings.sol\":1361:1388  uint public contractBalance */\n    tag_4:\n      callvalue\n        /* \"--CODEGEN--\":8:17   */\n      dup1\n        /* \"--CODEGEN--\":5:7   */\n      iszero\n      tag_18\n      jumpi\n        /* \"--CODEGEN--\":30:31   */\n      0x00\n        /* \"--CODEGEN--\":27:28   */\n      dup1\n        /* \"--CODEGEN--\":20:32   */\n      revert\n        /* \"--CODEGEN--\":5:7   */\n    tag_18:\n        /* \"Challenge Assignments/Solidity-Smart-Contract/joint_savings.sol\":1361:1388  uint public contractBalance */\n      pop\n      tag_19\n      tag_20\n      jump\t// in\n    tag_19:\n      mload(0x40)\n      dup1\n      dup3\n      dup2\n      mstore\n      0x20\n      add\n      swap2\n      pop\n      pop\n      mload(0x40)\n      dup1\n      swap2\n      sub\n      swap1\n      return\n        /* \"Challenge Assignments/Solidity-Smart-Contract/joint_savings.sol\":1325:1355  uint public lastWithdrawAmount */\n    tag_5:\n      callvalue\n        /* \"--CODEGEN--\":8:17   */\n      dup1\n        /* \"--CODEGEN--\":5:7   */\n      iszero\n      tag_21\n      jumpi\n        /* \"--CODEGEN--\":30:31   */\n      0x00\n        /* \"--CODEGEN--\":27:28   */\n      dup1\n        /* \"--CODEGEN--\":20:32   */\n      revert\n        /* \"--CODEGEN--\":5:7   */\n    tag_21:\n        /* \"Challenge Assignments/Solidity-Smart-Contract/joint_savings.sol\":1325:1355  uint public lastWithdrawAmount */\n      pop\n      tag_22\n      tag_23\n      jump\t// in\n    tag_22:\n      mload(0x40)\n      dup1\n      dup3\n      dup2\n      mstore\n      0x20\n      add\n      swap2\n      pop\n      pop\n      mload(0x40)\n      dup1\n      swap2\n      sub\n      swap1\n      return\n        /* \"Challenge Assignments/Solidity-Smart-Contract/joint_savings.sol\":3136:3373  function deposit() public payable {... */\n    tag_6:\n      tag_24\n      tag_25\n      jump\t// in\n    tag_24:\n      stop\n        /* \"Challenge Assignments/Solidity-Smart-Contract/joint_savings.sol\":1290:1319  address public lastToWithdraw */\n    tag_7:\n      callvalue\n        /* \"--CODEGEN--\":8:17   */\n      dup1\n        /* \"--CODEGEN--\":5:7   */\n      iszero\n      tag_26\n      jumpi\n        /* \"--CODEGEN--\":30:31   */\n      0x00\n        /* \"--CODEGEN--\":27:28   */\n      dup1\n        /* \"--CODEGEN--\":20:32   */\n      revert\n        /* \"--CODEGEN--\":5:7   */\n    tag_26:\n        /* \"Challenge Assignments/Solidity-Smart-Contract/joint_savings.sol\":1290:1319  address public lastToWithdraw */\n      pop\n      tag_27\n      tag_28\n      jump\t// in\n    tag_27:\n      mload(0x40)\n      dup1\n      dup3\n      0xffffffffffffffffffffffffffffffffffffffff\n      and\n      0xffffffffffffffffffffffffffffffffffffffff\n      and\n      dup2\n      mstore\n      0x20\n      add\n      swap2\n      pop\n      pop\n      mload(0x40)\n      dup1\n      swap2\n      sub\n      swap1\n      return\n        /* \"Challenge Assignments/Solidity-Smart-Contract/joint_savings.sol\":1565:3071  function withdraw(uint amount, address payable recipient) public {... */\n    tag_13:\n        /* \"Challenge Assignments/Solidity-Smart-Contract/joint_savings.sol\":1919:1929  accountOne */\n      0x00\n      dup1\n      swap1\n      sload\n      swap1\n      0x0100\n      exp\n      swap1\n      div\n      0xffffffffffffffffffffffffffffffffffffffff\n      and\n        /* \"Challenge Assignments/Solidity-Smart-Contract/joint_savings.sol\":1906:1929  recipient == accountOne */\n      0xffffffffffffffffffffffffffffffffffffffff\n      and\n        /* \"Challenge Assignments/Solidity-Smart-Contract/joint_savings.sol\":1906:1915  recipient */\n      dup2\n        /* \"Challenge Assignments/Solidity-Smart-Contract/joint_savings.sol\":1906:1929  recipient == accountOne */\n      0xffffffffffffffffffffffffffffffffffffffff\n      and\n      eq\n        /* \"Challenge Assignments/Solidity-Smart-Contract/joint_savings.sol\":1906:1956  recipient == accountOne || recipient == accountTwo */\n      dup1\n      tag_30\n      jumpi\n      pop\n        /* \"Challenge Assignments/Solidity-Smart-Contract/joint_savings.sol\":1946:1956  accountTwo */\n      0x01\n      0x00\n      swap1\n      sload\n      swap1\n      0x0100\n      exp\n      swap1\n      div\n      0xffffffffffffffffffffffffffffffffffffffff\n      and\n        /* \"Challenge Assignments/Solidity-Smart-Contract/joint_savings.sol\":1933:1956  recipient == accountTwo */\n      0xffffffffffffffffffffffffffffffffffffffff\n      and\n        /* \"Challenge Assignments/Solidity-Smart-Contract/joint_savings.sol\":1933:1942  recipient */\n      dup2\n        /* \"Challenge Assignments/Solidity-Smart-Contract/joint_savings.sol\":1933:1956  recipient == accountTwo */\n      0xffffffffffffffffffffffffffffffffffffffff\n      and\n      eq\n        /* \"Challenge Assignments/Solidity-Smart-Contract/joint_savings.sol\":1906:1956  recipient == accountOne || recipient == accountTwo */\n    tag_30:\n        /* \"Challenge Assignments/Solidity-Smart-Contract/joint_savings.sol\":1897:1987  require (recipient == accountOne || recipient == accountTwo, \"You don't own this account\") */\n      tag_31\n      jumpi\n      mload(0x40)\n      0x08c379a000000000000000000000000000000000000000000000000000000000\n      dup2\n      mstore\n      0x04\n      add\n      dup1\n      dup1\n      0x20\n      add\n      dup3\n      dup2\n      sub\n      dup3\n      mstore\n      0x1a\n      dup2\n      mstore\n      0x20\n      add\n      dup1\n      0x596f7520646f6e2774206f776e2074686973206163636f756e74000000000000\n      dup2\n      mstore\n      pop\n      0x20\n      add\n      swap2\n      pop\n      pop\n      mload(0x40)\n      dup1\n      swap2\n      sub\n      swap1\n      revert\n    tag_31:\n        /* \"Challenge Assignments/Solidity-Smart-Contract/joint_savings.sol\":2261:2276  contractBalance */\n      sload(0x04)\n        /* \"Challenge Assignments/Solidity-Smart-Contract/joint_savings.sol\":2251:2257  amount */\n      dup3\n        /* \"Challenge Assignments/Solidity-Smart-Contract/joint_savings.sol\":2251:2276  amount <= contractBalance */\n      gt\n      iszero\n        /* \"Challenge Assignments/Solidity-Smart-Contract/joint_savings.sol\":2242:2299  require (amount <= contractBalance, \"Insufficient Funds\") */\n      tag_32\n      jumpi\n      mload(0x40)\n      0x08c379a000000000000000000000000000000000000000000000000000000000\n      dup2\n      mstore\n      0x04\n      add\n      dup1\n      dup1\n      0x20\n      add\n      dup3\n      dup2\n      sub\n      dup3\n      mstore\n      0x12\n      dup2\n      mstore\n      0x20\n      add\n      dup1\n      0x496e73756666696369656e742046756e64730000000000000000000000000000\n      dup2\n      mstore\n      pop\n      0x20\n      add\n      swap2\n      pop\n      pop\n      mload(0x40)\n      dup1\n      swap2\n      sub\n      swap1\n      revert\n    tag_32:\n        /* \"Challenge Assignments/Solidity-Smart-Contract/joint_savings.sol\":2563:2572  recipient */\n      dup1\n        /* \"Challenge Assignments/Solidity-Smart-Contract/joint_savings.sol\":2547:2572  lastToWithdraw!=recipient */\n      0xffffffffffffffffffffffffffffffffffffffff\n      and\n        /* \"Challenge Assignments/Solidity-Smart-Contract/joint_savings.sol\":2547:2561  lastToWithdraw */\n      0x02\n      0x00\n      swap1\n      sload\n      swap1\n      0x0100\n      exp\n      swap1\n      div\n      0xffffffffffffffffffffffffffffffffffffffff\n      and\n        /* \"Challenge Assignments/Solidity-Smart-Contract/joint_savings.sol\":2547:2572  lastToWithdraw!=recipient */\n      0xffffffffffffffffffffffffffffffffffffffff\n      and\n      eq\n        /* \"Challenge Assignments/Solidity-Smart-Contract/joint_savings.sol\":2544:2600  if(lastToWithdraw!=recipient) (lastToWithdraw=recipient) */\n      tag_33\n      jumpi\n        /* \"Challenge Assignments/Solidity-Smart-Contract/joint_savings.sol\":2590:2599  recipient */\n      dup1\n        /* \"Challenge Assignments/Solidity-Smart-Contract/joint_savings.sol\":2575:2589  lastToWithdraw */\n      0x02\n      0x00\n        /* \"Challenge Assignments/Solidity-Smart-Contract/joint_savings.sol\":2575:2599  lastToWithdraw=recipient */\n      0x0100\n      exp\n      dup2\n      sload\n      dup2\n      0xffffffffffffffffffffffffffffffffffffffff\n      mul\n      not\n      and\n      swap1\n      dup4\n      0xffffffffffffffffffffffffffffffffffffffff\n      and\n      mul\n      or\n      swap1\n      sstore\n        /* \"Challenge Assignments/Solidity-Smart-Contract/joint_savings.sol\":2574:2600  (lastToWithdraw=recipient) */\n      pop\n        /* \"Challenge Assignments/Solidity-Smart-Contract/joint_savings.sol\":2544:2600  if(lastToWithdraw!=recipient) (lastToWithdraw=recipient) */\n    tag_33:\n        /* \"Challenge Assignments/Solidity-Smart-Contract/joint_savings.sol\":2723:2732  recipient */\n      dup1\n        /* \"Challenge Assignments/Solidity-Smart-Contract/joint_savings.sol\":2723:2741  recipient.transfer */\n      0xffffffffffffffffffffffffffffffffffffffff\n      and\n        /* \"Challenge Assignments/Solidity-Smart-Contract/joint_savings.sol\":2723:2749  recipient.transfer(amount) */\n      0x08fc\n        /* \"Challenge Assignments/Solidity-Smart-Contract/joint_savings.sol\":2742:2748  amount */\n      dup4\n        /* \"Challenge Assignments/Solidity-Smart-Contract/joint_savings.sol\":2723:2749  recipient.transfer(amount) */\n      swap1\n      dup2\n      iszero\n      mul\n      swap1\n      mload(0x40)\n      0x00\n      mload(0x40)\n      dup1\n      dup4\n      sub\n      dup2\n      dup6\n      dup9\n      dup9\n      call\n      swap4\n      pop\n      pop\n      pop\n      pop\n      iszero\n        /* \"--CODEGEN--\":8:17   */\n      dup1\n        /* \"--CODEGEN--\":5:7   */\n      iszero\n      tag_34\n      jumpi\n        /* \"--CODEGEN--\":45:61   */\n      returndatasize\n        /* \"--CODEGEN--\":42:43   */\n      0x00\n        /* \"--CODEGEN--\":39:40   */\n      dup1\n        /* \"--CODEGEN--\":24:62   */\n      returndatacopy\n        /* \"--CODEGEN--\":77:93   */\n      returndatasize\n        /* \"--CODEGEN--\":74:75   */\n      0x00\n        /* \"--CODEGEN--\":67:94   */\n      revert\n        /* \"--CODEGEN--\":5:7   */\n    tag_34:\n        /* \"Challenge Assignments/Solidity-Smart-Contract/joint_savings.sol\":2723:2749  recipient.transfer(amount) */\n      pop\n        /* \"Challenge Assignments/Solidity-Smart-Contract/joint_savings.sol\":2836:2842  amount */\n      dup2\n        /* \"Challenge Assignments/Solidity-Smart-Contract/joint_savings.sol\":2815:2833  lastWithdrawAmount */\n      0x03\n        /* \"Challenge Assignments/Solidity-Smart-Contract/joint_savings.sol\":2815:2842  lastWithdrawAmount = amount */\n      dup2\n      swap1\n      sstore\n      pop\n        /* \"Challenge Assignments/Solidity-Smart-Contract/joint_savings.sol\":3043:3064  address(this).balance */\n      selfbalance\n        /* \"Challenge Assignments/Solidity-Smart-Contract/joint_savings.sol\":3025:3040  contractBalance */\n      0x04\n        /* \"Challenge Assignments/Solidity-Smart-Contract/joint_savings.sol\":3025:3064  contractBalance = address(this).balance */\n      dup2\n      swap1\n      sstore\n      pop\n        /* \"Challenge Assignments/Solidity-Smart-Contract/joint_savings.sol\":1565:3071  function withdraw(uint amount, address payable recipient) public {... */\n      pop\n      pop\n      jump\t// out\n        /* \"Challenge Assignments/Solidity-Smart-Contract/joint_savings.sol\":3522:3769  function setAccounts(address payable account1, address payable account2) public{... */\n    tag_17:\n        /* \"Challenge Assignments/Solidity-Smart-Contract/joint_savings.sol\":3725:3733  account1 */\n      dup2\n        /* \"Challenge Assignments/Solidity-Smart-Contract/joint_savings.sol\":3714:3724  accountOne */\n      0x00\n      dup1\n        /* \"Challenge Assignments/Solidity-Smart-Contract/joint_savings.sol\":3714:3733  accountOne=account1 */\n      0x0100\n      exp\n      dup2\n      sload\n      dup2\n      0xffffffffffffffffffffffffffffffffffffffff\n      mul\n      not\n      and\n      swap1\n      dup4\n      0xffffffffffffffffffffffffffffffffffffffff\n      and\n      mul\n      or\n      swap1\n      sstore\n      pop\n        /* \"Challenge Assignments/Solidity-Smart-Contract/joint_savings.sol\":3754:3762  account2 */\n      dup1\n        /* \"Challenge Assignments/Solidity-Smart-Contract/joint_savings.sol\":3743:3753  accountTwo */\n      0x01\n      0x00\n        /* \"Challenge Assignments/Solidity-Smart-Contract/joint_savings.sol\":3743:3762  accountTwo=account2 */\n      0x0100\n      exp\n      dup2\n      sload\n      dup2\n      0xffffffffffffffffffffffffffffffffffffffff\n      mul\n      not\n      and\n      swap1\n      dup4\n      0xffffffffffffffffffffffffffffffffffffffff\n      and\n      mul\n      or\n      swap1\n      sstore\n      pop\n        /* \"Challenge Assignments/Solidity-Smart-Contract/joint_savings.sol\":3522:3769  function setAccounts(address payable account1, address payable account2) public{... */\n      pop\n      pop\n      jump\t// out\n        /* \"Challenge Assignments/Solidity-Smart-Contract/joint_savings.sol\":1361:1388  uint public contractBalance */\n    tag_20:\n      sload(0x04)\n      dup2\n      jump\t// out\n        /* \"Challenge Assignments/Solidity-Smart-Contract/joint_savings.sol\":1325:1355  uint public lastWithdrawAmount */\n    tag_23:\n      sload(0x03)\n      dup2\n      jump\t// out\n        /* \"Challenge Assignments/Solidity-Smart-Contract/joint_savings.sol\":3136:3373  function deposit() public payable {... */\n    tag_25:\n        /* \"Challenge Assignments/Solidity-Smart-Contract/joint_savings.sol\":3345:3366  address(this).balance */\n      selfbalance\n        /* \"Challenge Assignments/Solidity-Smart-Contract/joint_savings.sol\":3329:3344  contractBalance */\n      0x04\n        /* \"Challenge Assignments/Solidity-Smart-Contract/joint_savings.sol\":3329:3366  contractBalance=address(this).balance */\n      dup2\n      swap1\n      sstore\n      pop\n        /* \"Challenge Assignments/Solidity-Smart-Contract/joint_savings.sol\":3136:3373  function deposit() public payable {... */\n      jump\t// out\n        /* \"Challenge Assignments/Solidity-Smart-Contract/joint_savings.sol\":1290:1319  address public lastToWithdraw */\n    tag_28:\n      0x02\n      0x00\n      swap1\n      sload\n      swap1\n      0x0100\n      exp\n      swap1\n      div\n      0xffffffffffffffffffffffffffffffffffffffff\n      and\n      dup2\n      jump\t// out\n\n    auxdata: 0xa265627a7a72315820942ebf66838851bf7314b079f965d45068a65cc1e18b4f43716c4c67b805bb5d64736f6c63430005110032\n}\n",
				"bytecode": {
					"linkReferences": {},
					"object": "608060405234801561001057600080fd5b50610550806100206000396000f3fe6080604052600436106100545760003560e01c8062f714ce1461005657806343e02605146100b15780638b7afe2e14610122578063b831461e1461014d578063d0e30db014610178578063e15e1c9514610182575b005b34801561006257600080fd5b506100af6004803603604081101561007957600080fd5b8101908080359060200190929190803573ffffffffffffffffffffffffffffffffffffffff1690602001909291905050506101d9565b005b3480156100bd57600080fd5b50610120600480360360408110156100d457600080fd5b81019080803573ffffffffffffffffffffffffffffffffffffffff169060200190929190803573ffffffffffffffffffffffffffffffffffffffff16906020019092919050505061045b565b005b34801561012e57600080fd5b506101376104e0565b6040518082815260200191505060405180910390f35b34801561015957600080fd5b506101626104e6565b6040518082815260200191505060405180910390f35b6101806104ec565b005b34801561018e57600080fd5b506101976104f5565b604051808273ffffffffffffffffffffffffffffffffffffffff1673ffffffffffffffffffffffffffffffffffffffff16815260200191505060405180910390f35b6000809054906101000a900473ffffffffffffffffffffffffffffffffffffffff1673ffffffffffffffffffffffffffffffffffffffff168173ffffffffffffffffffffffffffffffffffffffff1614806102815750600160009054906101000a900473ffffffffffffffffffffffffffffffffffffffff1673ffffffffffffffffffffffffffffffffffffffff168173ffffffffffffffffffffffffffffffffffffffff16145b6102f3576040517f08c379a000000000000000000000000000000000000000000000000000000000815260040180806020018281038252601a8152602001807f596f7520646f6e2774206f776e2074686973206163636f756e7400000000000081525060200191505060405180910390fd5b60045482111561036b576040517f08c379a00000000000000000000000000000000000000000000000000000000081526004018080602001828103825260128152602001807f496e73756666696369656e742046756e6473000000000000000000000000000081525060200191505060405180910390fd5b8073ffffffffffffffffffffffffffffffffffffffff16600260009054906101000a900473ffffffffffffffffffffffffffffffffffffffff1673ffffffffffffffffffffffffffffffffffffffff16146104025780600260006101000a81548173ffffffffffffffffffffffffffffffffffffffff021916908373ffffffffffffffffffffffffffffffffffffffff1602179055505b8073ffffffffffffffffffffffffffffffffffffffff166108fc839081150290604051600060405180830381858888f19350505050158015610448573d6000803e3d6000fd5b5081600381905550476004819055505050565b816000806101000a81548173ffffffffffffffffffffffffffffffffffffffff021916908373ffffffffffffffffffffffffffffffffffffffff16021790555080600160006101000a81548173ffffffffffffffffffffffffffffffffffffffff021916908373ffffffffffffffffffffffffffffffffffffffff1602179055505050565b60045481565b60035481565b47600481905550565b600260009054906101000a900473ffffffffffffffffffffffffffffffffffffffff168156fea265627a7a72315820942ebf66838851bf7314b079f965d45068a65cc1e18b4f43716c4c67b805bb5d64736f6c63430005110032",
					"opcodes": "PUSH1 0x80 PUSH1 0x40 MSTORE CALLVALUE DUP1 ISZERO PUSH2 0x10 JUMPI PUSH1 0x0 DUP1 REVERT JUMPDEST POP PUSH2 0x550 DUP1 PUSH2 0x20 PUSH1 0x0 CODECOPY PUSH1 0x0 RETURN INVALID PUSH1 0x80 PUSH1 0x40 MSTORE PUSH1 0x4 CALLDATASIZE LT PUSH2 0x54 JUMPI PUSH1 0x0 CALLDATALOAD PUSH1 0xE0 SHR DUP1 PUSH3 0xF714CE EQ PUSH2 0x56 JUMPI DUP1 PUSH4 0x43E02605 EQ PUSH2 0xB1 JUMPI DUP1 PUSH4 0x8B7AFE2E EQ PUSH2 0x122 JUMPI DUP1 PUSH4 0xB831461E EQ PUSH2 0x14D JUMPI DUP1 PUSH4 0xD0E30DB0 EQ PUSH2 0x178 JUMPI DUP1 PUSH4 0xE15E1C95 EQ PUSH2 0x182 JUMPI JUMPDEST STOP JUMPDEST CALLVALUE DUP1 ISZERO PUSH2 0x62 JUMPI PUSH1 0x0 DUP1 REVERT JUMPDEST POP PUSH2 0xAF PUSH1 0x4 DUP1 CALLDATASIZE SUB PUSH1 0x40 DUP2 LT ISZERO PUSH2 0x79 JUMPI PUSH1 0x0 DUP1 REVERT JUMPDEST DUP2 ADD SWAP1 DUP1 DUP1 CALLDATALOAD SWAP1 PUSH1 0x20 ADD SWAP1 SWAP3 SWAP2 SWAP1 DUP1 CALLDATALOAD PUSH20 0xFFFFFFFFFFFFFFFFFFFFFFFFFFFFFFFFFFFFFFFF AND SWAP1 PUSH1 0x20 ADD SWAP1 SWAP3 SWAP2 SWAP1 POP POP POP PUSH2 0x1D9 JUMP JUMPDEST STOP JUMPDEST CALLVALUE DUP1 ISZERO PUSH2 0xBD JUMPI PUSH1 0x0 DUP1 REVERT JUMPDEST POP PUSH2 0x120 PUSH1 0x4 DUP1 CALLDATASIZE SUB PUSH1 0x40 DUP2 LT ISZERO PUSH2 0xD4 JUMPI PUSH1 0x0 DUP1 REVERT JUMPDEST DUP2 ADD SWAP1 DUP1 DUP1 CALLDATALOAD PUSH20 0xFFFFFFFFFFFFFFFFFFFFFFFFFFFFFFFFFFFFFFFF AND SWAP1 PUSH1 0x20 ADD SWAP1 SWAP3 SWAP2 SWAP1 DUP1 CALLDATALOAD PUSH20 0xFFFFFFFFFFFFFFFFFFFFFFFFFFFFFFFFFFFFFFFF AND SWAP1 PUSH1 0x20 ADD SWAP1 SWAP3 SWAP2 SWAP1 POP POP POP PUSH2 0x45B JUMP JUMPDEST STOP JUMPDEST CALLVALUE DUP1 ISZERO PUSH2 0x12E JUMPI PUSH1 0x0 DUP1 REVERT JUMPDEST POP PUSH2 0x137 PUSH2 0x4E0 JUMP JUMPDEST PUSH1 0x40 MLOAD DUP1 DUP3 DUP2 MSTORE PUSH1 0x20 ADD SWAP2 POP POP PUSH1 0x40 MLOAD DUP1 SWAP2 SUB SWAP1 RETURN JUMPDEST CALLVALUE DUP1 ISZERO PUSH2 0x159 JUMPI PUSH1 0x0 DUP1 REVERT JUMPDEST POP PUSH2 0x162 PUSH2 0x4E6 JUMP JUMPDEST PUSH1 0x40 MLOAD DUP1 DUP3 DUP2 MSTORE PUSH1 0x20 ADD SWAP2 POP POP PUSH1 0x40 MLOAD DUP1 SWAP2 SUB SWAP1 RETURN JUMPDEST PUSH2 0x180 PUSH2 0x4EC JUMP JUMPDEST STOP JUMPDEST CALLVALUE DUP1 ISZERO PUSH2 0x18E JUMPI PUSH1 0x0 DUP1 REVERT JUMPDEST POP PUSH2 0x197 PUSH2 0x4F5 JUMP JUMPDEST PUSH1 0x40 MLOAD DUP1 DUP3 PUSH20 0xFFFFFFFFFFFFFFFFFFFFFFFFFFFFFFFFFFFFFFFF AND PUSH20 0xFFFFFFFFFFFFFFFFFFFFFFFFFFFFFFFFFFFFFFFF AND DUP2 MSTORE PUSH1 0x20 ADD SWAP2 POP POP PUSH1 0x40 MLOAD DUP1 SWAP2 SUB SWAP1 RETURN JUMPDEST PUSH1 0x0 DUP1 SWAP1 SLOAD SWAP1 PUSH2 0x100 EXP SWAP1 DIV PUSH20 0xFFFFFFFFFFFFFFFFFFFFFFFFFFFFFFFFFFFFFFFF AND PUSH20 0xFFFFFFFFFFFFFFFFFFFFFFFFFFFFFFFFFFFFFFFF AND DUP2 PUSH20 0xFFFFFFFFFFFFFFFFFFFFFFFFFFFFFFFFFFFFFFFF AND EQ DUP1 PUSH2 0x281 JUMPI POP PUSH1 0x1 PUSH1 0x0 SWAP1 SLOAD SWAP1 PUSH2 0x100 EXP SWAP1 DIV PUSH20 0xFFFFFFFFFFFFFFFFFFFFFFFFFFFFFFFFFFFFFFFF AND PUSH20 0xFFFFFFFFFFFFFFFFFFFFFFFFFFFFFFFFFFFFFFFF AND DUP2 PUSH20 0xFFFFFFFFFFFFFFFFFFFFFFFFFFFFFFFFFFFFFFFF AND EQ JUMPDEST PUSH2 0x2F3 JUMPI PUSH1 0x40 MLOAD PUSH32 0x8C379A000000000000000000000000000000000000000000000000000000000 DUP2 MSTORE PUSH1 0x4 ADD DUP1 DUP1 PUSH1 0x20 ADD DUP3 DUP2 SUB DUP3 MSTORE PUSH1 0x1A DUP2 MSTORE PUSH1 0x20 ADD DUP1 PUSH32 0x596F7520646F6E2774206F776E2074686973206163636F756E74000000000000 DUP2 MSTORE POP PUSH1 0x20 ADD SWAP2 POP POP PUSH1 0x40 MLOAD DUP1 SWAP2 SUB SWAP1 REVERT JUMPDEST PUSH1 0x4 SLOAD DUP3 GT ISZERO PUSH2 0x36B JUMPI PUSH1 0x40 MLOAD PUSH32 0x8C379A000000000000000000000000000000000000000000000000000000000 DUP2 MSTORE PUSH1 0x4 ADD DUP1 DUP1 PUSH1 0x20 ADD DUP3 DUP2 SUB DUP3 MSTORE PUSH1 0x12 DUP2 MSTORE PUSH1 0x20 ADD DUP1 PUSH32 0x496E73756666696369656E742046756E64730000000000000000000000000000 DUP2 MSTORE POP PUSH1 0x20 ADD SWAP2 POP POP PUSH1 0x40 MLOAD DUP1 SWAP2 SUB SWAP1 REVERT JUMPDEST DUP1 PUSH20 0xFFFFFFFFFFFFFFFFFFFFFFFFFFFFFFFFFFFFFFFF AND PUSH1 0x2 PUSH1 0x0 SWAP1 SLOAD SWAP1 PUSH2 0x100 EXP SWAP1 DIV PUSH20 0xFFFFFFFFFFFFFFFFFFFFFFFFFFFFFFFFFFFFFFFF AND PUSH20 0xFFFFFFFFFFFFFFFFFFFFFFFFFFFFFFFFFFFFFFFF AND EQ PUSH2 0x402 JUMPI DUP1 PUSH1 0x2 PUSH1 0x0 PUSH2 0x100 EXP DUP2 SLOAD DUP2 PUSH20 0xFFFFFFFFFFFFFFFFFFFFFFFFFFFFFFFFFFFFFFFF MUL NOT AND SWAP1 DUP4 PUSH20 0xFFFFFFFFFFFFFFFFFFFFFFFFFFFFFFFFFFFFFFFF AND MUL OR SWAP1 SSTORE POP JUMPDEST DUP1 PUSH20 0xFFFFFFFFFFFFFFFFFFFFFFFFFFFFFFFFFFFFFFFF AND PUSH2 0x8FC DUP4 SWAP1 DUP2 ISZERO MUL SWAP1 PUSH1 0x40 MLOAD PUSH1 0x0 PUSH1 0x40 MLOAD DUP1 DUP4 SUB DUP2 DUP6 DUP9 DUP9 CALL SWAP4 POP POP POP POP ISZERO DUP1 ISZERO PUSH2 0x448 JUMPI RETURNDATASIZE PUSH1 0x0 DUP1 RETURNDATACOPY RETURNDATASIZE PUSH1 0x0 REVERT JUMPDEST POP DUP2 PUSH1 0x3 DUP2 SWAP1 SSTORE POP SELFBALANCE PUSH1 0x4 DUP2 SWAP1 SSTORE POP POP POP JUMP JUMPDEST DUP2 PUSH1 0x0 DUP1 PUSH2 0x100 EXP DUP2 SLOAD DUP2 PUSH20 0xFFFFFFFFFFFFFFFFFFFFFFFFFFFFFFFFFFFFFFFF MUL NOT AND SWAP1 DUP4 PUSH20 0xFFFFFFFFFFFFFFFFFFFFFFFFFFFFFFFFFFFFFFFF AND MUL OR SWAP1 SSTORE POP DUP1 PUSH1 0x1 PUSH1 0x0 PUSH2 0x100 EXP DUP2 SLOAD DUP2 PUSH20 0xFFFFFFFFFFFFFFFFFFFFFFFFFFFFFFFFFFFFFFFF MUL NOT AND SWAP1 DUP4 PUSH20 0xFFFFFFFFFFFFFFFFFFFFFFFFFFFFFFFFFFFFFFFF AND MUL OR SWAP1 SSTORE POP POP POP JUMP JUMPDEST PUSH1 0x4 SLOAD DUP2 JUMP JUMPDEST PUSH1 0x3 SLOAD DUP2 JUMP JUMPDEST SELFBALANCE PUSH1 0x4 DUP2 SWAP1 SSTORE POP JUMP JUMPDEST PUSH1 0x2 PUSH1 0x0 SWAP1 SLOAD SWAP1 PUSH2 0x100 EXP SWAP1 DIV PUSH20 0xFFFFFFFFFFFFFFFFFFFFFFFFFFFFFFFFFFFFFFFF AND DUP2 JUMP INVALID LOG2 PUSH6 0x627A7A723158 KECCAK256 SWAP5 0x2E 0xBF PUSH7 0x838851BF7314B0 PUSH26 0xF965D45068A65CC1E18B4F43716C4C67B805BB5D64736F6C6343 STOP SDIV GT STOP ORIGIN "
				},
				"gasEstimates": {
					"creation": {
						"codeDepositCost": "272000",
						"executionCost": "312",
						"totalCost": "272312"
					},
					"external": {
						"": "184",
						"contractBalance()": "1027",
						"deposit()": "20202",
						"lastToWithdraw()": "1141",
						"lastWithdrawAmount()": "1049",
						"setAccounts(address,address)": "42003",
						"withdraw(uint256,address)": "infinite"
					}
				},
				"methodIdentifiers": {
					"contractBalance()": "8b7afe2e",
					"deposit()": "d0e30db0",
					"lastToWithdraw()": "e15e1c95",
					"lastWithdrawAmount()": "b831461e",
					"setAccounts(address,address)": "43e02605",
					"withdraw(uint256,address)": "00f714ce"
				}
			},
			"storageLayout": {
				"storage": [
					{
						"astId": 3,
						"contract": "Challenge Assignments/Solidity-Smart-Contract/joint_savings.sol:JointSavings",
						"label": "accountOne",
						"offset": 0,
						"slot": "0",
						"type": "t_address_payable"
					},
					{
						"astId": 5,
						"contract": "Challenge Assignments/Solidity-Smart-Contract/joint_savings.sol:JointSavings",
						"label": "accountTwo",
						"offset": 0,
						"slot": "1",
						"type": "t_address_payable"
					},
					{
						"astId": 7,
						"contract": "Challenge Assignments/Solidity-Smart-Contract/joint_savings.sol:JointSavings",
						"label": "lastToWithdraw",
						"offset": 0,
						"slot": "2",
						"type": "t_address"
					},
					{
						"astId": 9,
						"contract": "Challenge Assignments/Solidity-Smart-Contract/joint_savings.sol:JointSavings",
						"label": "lastWithdrawAmount",
						"offset": 0,
						"slot": "3",
						"type": "t_uint256"
					},
					{
						"astId": 11,
						"contract": "Challenge Assignments/Solidity-Smart-Contract/joint_savings.sol:JointSavings",
						"label": "contractBalance",
						"offset": 0,
						"slot": "4",
						"type": "t_uint256"
					}
				],
				"types": {
					"t_address": {
						"encoding": "inplace",
						"label": "address",
						"numberOfBytes": "20"
					},
					"t_address_payable": {
						"encoding": "inplace",
						"label": "address payable",
						"numberOfBytes": "20"
					},
					"t_uint256": {
						"encoding": "inplace",
						"label": "uint256",
						"numberOfBytes": "32"
					}
				}
			},
			"userdoc": {
				"methods": {}
			}
		}
	}
}